{
  "_format": "hh-sol-artifact-1",
  "contractName": "MessageBoard",
  "sourceName": "contracts/MessageBoard.sol",
  "abi": [
    {
      "inputs": [
        {
          "internalType": "string",
          "name": "name",
          "type": "string"
        },
        {
          "internalType": "string",
          "name": "symbol",
          "type": "string"
        }
      ],
      "stateMutability": "nonpayable",
      "type": "constructor"
    },
    {
      "anonymous": false,
      "inputs": [
        {
          "indexed": true,
          "internalType": "address",
          "name": "owner",
          "type": "address"
        },
        {
          "indexed": true,
          "internalType": "address",
          "name": "approved",
          "type": "address"
        },
        {
          "indexed": true,
          "internalType": "uint256",
          "name": "tokenId",
          "type": "uint256"
        }
      ],
      "name": "Approval",
      "type": "event"
    },
    {
      "anonymous": false,
      "inputs": [
        {
          "indexed": true,
          "internalType": "address",
          "name": "owner",
          "type": "address"
        },
        {
          "indexed": true,
          "internalType": "address",
          "name": "operator",
          "type": "address"
        },
        {
          "indexed": false,
          "internalType": "bool",
          "name": "approved",
          "type": "bool"
        }
      ],
      "name": "ApprovalForAll",
      "type": "event"
    },
    {
      "anonymous": false,
      "inputs": [
        {
          "indexed": true,
          "internalType": "uint256",
          "name": "messageId",
          "type": "uint256"
        },
        {
          "indexed": true,
          "internalType": "address",
          "name": "liker",
          "type": "address"
        }
      ],
      "name": "MessageLiked",
      "type": "event"
    },
    {
      "anonymous": false,
      "inputs": [
        {
          "indexed": true,
          "internalType": "address",
          "name": "sender",
          "type": "address"
        },
        {
          "indexed": false,
          "internalType": "string",
          "name": "content",
          "type": "string"
        }
      ],
      "name": "MessageSent",
      "type": "event"
    },
    {
      "anonymous": false,
      "inputs": [
        {
          "indexed": true,
          "internalType": "address",
          "name": "previousOwner",
          "type": "address"
        },
        {
          "indexed": true,
          "internalType": "address",
          "name": "newOwner",
          "type": "address"
        }
      ],
      "name": "OwnershipTransferred",
      "type": "event"
    },
    {
      "anonymous": false,
      "inputs": [
        {
          "indexed": true,
          "internalType": "address",
          "name": "from",
          "type": "address"
        },
        {
          "indexed": true,
          "internalType": "address",
          "name": "to",
          "type": "address"
        },
        {
          "indexed": true,
          "internalType": "uint256",
          "name": "tokenId",
          "type": "uint256"
        }
      ],
      "name": "Transfer",
      "type": "event"
    },
    {
      "inputs": [
        {
          "internalType": "address",
          "name": "to",
          "type": "address"
        },
        {
          "internalType": "uint256",
          "name": "tokenId",
          "type": "uint256"
        }
      ],
      "name": "approve",
      "outputs": [],
      "stateMutability": "nonpayable",
      "type": "function"
    },
    {
      "inputs": [
        {
          "internalType": "address",
          "name": "owner",
          "type": "address"
        }
      ],
      "name": "balanceOf",
      "outputs": [
        {
          "internalType": "uint256",
          "name": "",
          "type": "uint256"
        }
      ],
      "stateMutability": "view",
      "type": "function"
    },
    {
      "inputs": [
        {
          "internalType": "uint256",
          "name": "tokenId",
          "type": "uint256"
        }
      ],
      "name": "getApproved",
      "outputs": [
        {
          "internalType": "address",
          "name": "",
          "type": "address"
        }
      ],
      "stateMutability": "view",
      "type": "function"
    },
    {
      "inputs": [
        {
          "internalType": "uint256",
          "name": "_messageId",
          "type": "uint256"
        }
      ],
      "name": "getMessage",
      "outputs": [
        {
          "internalType": "address",
          "name": "sender",
          "type": "address"
        },
        {
          "internalType": "string",
          "name": "content",
          "type": "string"
        },
        {
          "internalType": "uint256",
          "name": "likes",
          "type": "uint256"
        }
      ],
      "stateMutability": "view",
      "type": "function"
    },
    {
      "inputs": [],
      "name": "getMessageCount",
      "outputs": [
        {
          "internalType": "uint256",
          "name": "",
          "type": "uint256"
        }
      ],
      "stateMutability": "view",
      "type": "function"
    },
    {
      "inputs": [
        {
          "internalType": "address",
          "name": "owner",
          "type": "address"
        },
        {
          "internalType": "address",
          "name": "operator",
          "type": "address"
        }
      ],
      "name": "isApprovedForAll",
      "outputs": [
        {
          "internalType": "bool",
          "name": "",
          "type": "bool"
        }
      ],
      "stateMutability": "view",
      "type": "function"
    },
    {
      "inputs": [
        {
          "internalType": "uint256",
          "name": "_messageId",
          "type": "uint256"
        }
      ],
      "name": "likeMessage",
      "outputs": [],
      "stateMutability": "nonpayable",
      "type": "function"
    },
    {
      "inputs": [
        {
          "internalType": "uint256",
          "name": "",
          "type": "uint256"
        }
      ],
      "name": "messages",
      "outputs": [
        {
          "internalType": "address",
          "name": "sender",
          "type": "address"
        },
        {
          "internalType": "string",
          "name": "content",
          "type": "string"
        },
        {
          "internalType": "uint256",
          "name": "likes",
          "type": "uint256"
        }
      ],
      "stateMutability": "view",
      "type": "function"
    },
    {
      "inputs": [],
      "name": "name",
      "outputs": [
        {
          "internalType": "string",
          "name": "",
          "type": "string"
        }
      ],
      "stateMutability": "view",
      "type": "function"
    },
    {
      "inputs": [],
      "name": "owner",
      "outputs": [
        {
          "internalType": "address",
          "name": "",
          "type": "address"
        }
      ],
      "stateMutability": "view",
      "type": "function"
    },
    {
      "inputs": [
        {
          "internalType": "uint256",
          "name": "tokenId",
          "type": "uint256"
        }
      ],
      "name": "ownerOf",
      "outputs": [
        {
          "internalType": "address",
          "name": "",
          "type": "address"
        }
      ],
      "stateMutability": "view",
      "type": "function"
    },
    {
      "inputs": [],
      "name": "renounceOwnership",
      "outputs": [],
      "stateMutability": "nonpayable",
      "type": "function"
    },
    {
      "inputs": [
        {
          "internalType": "address",
          "name": "from",
          "type": "address"
        },
        {
          "internalType": "address",
          "name": "to",
          "type": "address"
        },
        {
          "internalType": "uint256",
          "name": "tokenId",
          "type": "uint256"
        }
      ],
      "name": "safeTransferFrom",
      "outputs": [],
      "stateMutability": "nonpayable",
      "type": "function"
    },
    {
      "inputs": [
        {
          "internalType": "address",
          "name": "from",
          "type": "address"
        },
        {
          "internalType": "address",
          "name": "to",
          "type": "address"
        },
        {
          "internalType": "uint256",
          "name": "tokenId",
          "type": "uint256"
        },
        {
          "internalType": "bytes",
          "name": "data",
          "type": "bytes"
        }
      ],
      "name": "safeTransferFrom",
      "outputs": [],
      "stateMutability": "nonpayable",
      "type": "function"
    },
    {
      "inputs": [
        {
          "internalType": "string",
          "name": "_content",
          "type": "string"
        }
      ],
      "name": "sendMessage",
      "outputs": [],
      "stateMutability": "nonpayable",
      "type": "function"
    },
    {
      "inputs": [
        {
          "internalType": "address",
          "name": "operator",
          "type": "address"
        },
        {
          "internalType": "bool",
          "name": "approved",
          "type": "bool"
        }
      ],
      "name": "setApprovalForAll",
      "outputs": [],
      "stateMutability": "nonpayable",
      "type": "function"
    },
    {
      "inputs": [
        {
          "internalType": "bytes4",
          "name": "interfaceId",
          "type": "bytes4"
        }
      ],
      "name": "supportsInterface",
      "outputs": [
        {
          "internalType": "bool",
          "name": "",
          "type": "bool"
        }
      ],
      "stateMutability": "view",
      "type": "function"
    },
    {
      "inputs": [],
      "name": "symbol",
      "outputs": [
        {
          "internalType": "string",
          "name": "",
          "type": "string"
        }
      ],
      "stateMutability": "view",
      "type": "function"
    },
    {
      "inputs": [
        {
          "internalType": "uint256",
          "name": "index",
          "type": "uint256"
        }
      ],
      "name": "tokenByIndex",
      "outputs": [
        {
          "internalType": "uint256",
          "name": "",
          "type": "uint256"
        }
      ],
      "stateMutability": "view",
      "type": "function"
    },
    {
      "inputs": [
        {
          "internalType": "address",
          "name": "owner",
          "type": "address"
        },
        {
          "internalType": "uint256",
          "name": "index",
          "type": "uint256"
        }
      ],
      "name": "tokenOfOwnerByIndex",
      "outputs": [
        {
          "internalType": "uint256",
          "name": "",
          "type": "uint256"
        }
      ],
      "stateMutability": "view",
      "type": "function"
    },
    {
      "inputs": [
        {
          "internalType": "uint256",
          "name": "tokenId",
          "type": "uint256"
        }
      ],
      "name": "tokenURI",
      "outputs": [
        {
          "internalType": "string",
          "name": "",
          "type": "string"
        }
      ],
      "stateMutability": "view",
      "type": "function"
    },
    {
      "inputs": [],
      "name": "totalSupply",
      "outputs": [
        {
          "internalType": "uint256",
          "name": "",
          "type": "uint256"
        }
      ],
      "stateMutability": "view",
      "type": "function"
    },
    {
      "inputs": [
        {
          "internalType": "address",
          "name": "from",
          "type": "address"
        },
        {
          "internalType": "address",
          "name": "to",
          "type": "address"
        },
        {
          "internalType": "uint256",
          "name": "tokenId",
          "type": "uint256"
        }
      ],
      "name": "transferFrom",
      "outputs": [],
      "stateMutability": "nonpayable",
      "type": "function"
    },
    {
      "inputs": [
        {
          "internalType": "address",
          "name": "newOwner",
          "type": "address"
        }
      ],
      "name": "transferOwnership",
      "outputs": [],
      "stateMutability": "nonpayable",
      "type": "function"
    }
  ],
  "bytecode": "0x60806040523480156200001157600080fd5b50604051620041eb380380620041eb8339818101604052810190620000379190620002e8565b818181600090816200004a9190620005b8565b5080600190816200005c9190620005b8565b5050506200007f620000736200008760201b60201c565b6200008f60201b60201c565b50506200069f565b600033905090565b6000600a60009054906101000a900473ffffffffffffffffffffffffffffffffffffffff16905081600a60006101000a81548173ffffffffffffffffffffffffffffffffffffffff021916908373ffffffffffffffffffffffffffffffffffffffff1602179055508173ffffffffffffffffffffffffffffffffffffffff168173ffffffffffffffffffffffffffffffffffffffff167f8be0079c531659141344cd1fd0a4f28419497f9722a3daafe3b4186f6b6457e060405160405180910390a35050565b6000604051905090565b600080fd5b600080fd5b600080fd5b600080fd5b6000601f19601f8301169050919050565b7f4e487b7100000000000000000000000000000000000000000000000000000000600052604160045260246000fd5b620001be8262000173565b810181811067ffffffffffffffff82111715620001e057620001df62000184565b5b80604052505050565b6000620001f562000155565b9050620002038282620001b3565b919050565b600067ffffffffffffffff82111562000226576200022562000184565b5b620002318262000173565b9050602081019050919050565b60005b838110156200025e57808201518184015260208101905062000241565b60008484015250505050565b6000620002816200027b8462000208565b620001e9565b905082815260208101848484011115620002a0576200029f6200016e565b5b620002ad8482856200023e565b509392505050565b600082601f830112620002cd57620002cc62000169565b5b8151620002df8482602086016200026a565b91505092915050565b600080604083850312156200030257620003016200015f565b5b600083015167ffffffffffffffff81111562000323576200032262000164565b5b6200033185828601620002b5565b925050602083015167ffffffffffffffff81111562000355576200035462000164565b5b6200036385828601620002b5565b9150509250929050565b600081519050919050565b7f4e487b7100000000000000000000000000000000000000000000000000000000600052602260045260246000fd5b60006002820490506001821680620003c057607f821691505b602082108103620003d657620003d562000378565b5b50919050565b60008190508160005260206000209050919050565b60006020601f8301049050919050565b600082821b905092915050565b600060088302620004407fffffffffffffffffffffffffffffffffffffffffffffffffffffffffffffffff8262000401565b6200044c868362000401565b95508019841693508086168417925050509392505050565b6000819050919050565b6000819050919050565b600062000499620004936200048d8462000464565b6200046e565b62000464565b9050919050565b6000819050919050565b620004b58362000478565b620004cd620004c482620004a0565b8484546200040e565b825550505050565b600090565b620004e4620004d5565b620004f1818484620004aa565b505050565b5b8181101562000519576200050d600082620004da565b600181019050620004f7565b5050565b601f82111562000568576200053281620003dc565b6200053d84620003f1565b810160208510156200054d578190505b620005656200055c85620003f1565b830182620004f6565b50505b505050565b600082821c905092915050565b60006200058d600019846008026200056d565b1980831691505092915050565b6000620005a883836200057a565b9150826002028217905092915050565b620005c3826200036d565b67ffffffffffffffff811115620005df57620005de62000184565b5b620005eb8254620003a7565b620005f88282856200051d565b600060209050601f8311600181146200063057600084156200061b578287015190505b6200062785826200059a565b86555062000697565b601f1984166200064086620003dc565b60005b828110156200066a5784890151825560018201915060208501945060208101905062000643565b868310156200068a578489015162000686601f8916826200057a565b8355505b6001600288020188555050505b505050505050565b613b3c80620006af6000396000f3fe608060405234801561001057600080fd5b50600436106101585760003560e01c80634f6ccce7116100c357806395d89b411161007c57806395d89b41146103ef578063a22cb4651461040d578063b88d4fde14610429578063c87b56dd14610445578063e985e9c514610475578063f2fde38b146104a557610158565b80634f6ccce7146103055780636352211e1461033557806370a0823114610365578063715018a61461039557806386f79edb1461039f5780638da5cb5b146103d157610158565b806323b872dd1161011557806323b872dd146102475780632f745c5914610263578063319339161461029357806342842e0e146102b1578063469c8110146102cd5780634baeb4db146102e957610158565b806301ffc9a71461015d57806306fdde031461018d578063081812fc146101ab578063095ea7b3146101db5780630d80fefd146101f757806318160ddd14610229575b600080fd5b610177600480360381019061017291906125fd565b6104c1565b6040516101849190612645565b60405180910390f35b61019561053b565b6040516101a291906126f0565b60405180910390f35b6101c560048036038101906101c09190612748565b6105cd565b6040516101d291906127b6565b60405180910390f35b6101f560048036038101906101f091906127fd565b610613565b005b610211600480360381019061020c9190612748565b61072a565b6040516102209392919061284c565b60405180910390f35b61023161080c565b60405161023e919061288a565b60405180910390f35b610261600480360381019061025c91906128a5565b610819565b005b61027d600480360381019061027891906127fd565b610879565b60405161028a919061288a565b60405180910390f35b61029b61091e565b6040516102a8919061288a565b60405180910390f35b6102cb60048036038101906102c691906128a5565b61092b565b005b6102e760048036038101906102e29190612a2d565b61094b565b005b61030360048036038101906102fe9190612748565b610aa6565b005b61031f600480360381019061031a9190612748565b610beb565b60405161032c919061288a565b60405180910390f35b61034f600480360381019061034a9190612748565b610c5c565b60405161035c91906127b6565b60405180910390f35b61037f600480360381019061037a9190612a76565b610ce2565b60405161038c919061288a565b60405180910390f35b61039d610d99565b005b6103b960048036038101906103b49190612748565b610dad565b6040516103c89392919061284c565b60405180910390f35b6103d9610ee5565b6040516103e691906127b6565b60405180910390f35b6103f7610f0f565b60405161040491906126f0565b60405180910390f35b61042760048036038101906104229190612acf565b610fa1565b005b610443600480360381019061043e9190612bb0565b610fb7565b005b61045f600480360381019061045a9190612748565b611019565b60405161046c91906126f0565b60405180910390f35b61048f600480360381019061048a9190612c33565b611081565b60405161049c9190612645565b60405180910390f35b6104bf60048036038101906104ba9190612a76565b611115565b005b60007f780e9d63000000000000000000000000000000000000000000000000000000007bffffffffffffffffffffffffffffffffffffffffffffffffffffffff1916827bffffffffffffffffffffffffffffffffffffffffffffffffffffffff19161480610534575061053382611198565b5b9050919050565b60606000805461054a90612ca2565b80601f016020809104026020016040519081016040528092919081815260200182805461057690612ca2565b80156105c35780601f10610598576101008083540402835291602001916105c3565b820191906000526020600020905b8154815290600101906020018083116105a657829003601f168201915b5050505050905090565b60006105d88261127a565b6004600083815260200190815260200160002060009054906101000a900473ffffffffffffffffffffffffffffffffffffffff169050919050565b600061061e82610c5c565b90508073ffffffffffffffffffffffffffffffffffffffff168373ffffffffffffffffffffffffffffffffffffffff160361068e576040517f08c379a000000000000000000000000000000000000000000000000000000000815260040161068590612d45565b60405180910390fd5b8073ffffffffffffffffffffffffffffffffffffffff166106ad6112c5565b73ffffffffffffffffffffffffffffffffffffffff1614806106dc57506106db816106d66112c5565b611081565b5b61071b576040517f08c379a000000000000000000000000000000000000000000000000000000000815260040161071290612dd7565b60405180910390fd5b61072583836112cd565b505050565b600b818154811061073a57600080fd5b90600052602060002090600302016000915090508060000160009054906101000a900473ffffffffffffffffffffffffffffffffffffffff169080600101805461078390612ca2565b80601f01602080910402602001604051908101604052809291908181526020018280546107af90612ca2565b80156107fc5780601f106107d1576101008083540402835291602001916107fc565b820191906000526020600020905b8154815290600101906020018083116107df57829003601f168201915b5050505050908060020154905083565b6000600880549050905090565b61082a6108246112c5565b82611386565b610869576040517f08c379a000000000000000000000000000000000000000000000000000000000815260040161086090612e69565b60405180910390fd5b61087483838361141b565b505050565b600061088483610ce2565b82106108c5576040517f08c379a00000000000000000000000000000000000000000000000000000000081526004016108bc90612efb565b60405180910390fd5b600660008473ffffffffffffffffffffffffffffffffffffffff1673ffffffffffffffffffffffffffffffffffffffff168152602001908152602001600020600083815260200190815260200160002054905092915050565b6000600b80549050905090565b61094683838360405180602001604052806000815250610fb7565b505050565b600081511161098f576040517f08c379a000000000000000000000000000000000000000000000000000000000815260040161098690612f67565b60405180910390fd5b600b60405180606001604052803373ffffffffffffffffffffffffffffffffffffffff1681526020018381526020016000815250908060018154018082558091505060019003906000526020600020906003020160009091909190915060008201518160000160006101000a81548173ffffffffffffffffffffffffffffffffffffffff021916908373ffffffffffffffffffffffffffffffffffffffff1602179055506020820151816001019081610a489190613133565b506040820151816002015550503373ffffffffffffffffffffffffffffffffffffffff167f0d7fccda06d6eb51c23cbd16d49b9b3f3ebafb002dba1b074895cbb35d0e813082604051610a9b91906126f0565b60405180910390a250565b600b805490508110610aed576040517f08c379a0000000000000000000000000000000000000000000000000000000008152600401610ae490613251565b60405180910390fd5b600b8181548110610b0157610b00613271565b5b90600052602060002090600302016002016000815480929190610b23906132cf565b91905055503373ffffffffffffffffffffffffffffffffffffffff16817f518ee79129b832b137fb93434354b830b11710eebd5204954b1da274475fa28560405160405180910390a36005600b8281548110610b8257610b81613271565b5b90600052602060002090600302016002015410610be857610be7600b8281548110610bb057610baf613271565b5b906000526020600020906003020160000160009054906101000a900473ffffffffffffffffffffffffffffffffffffffff16611714565b5b50565b6000610bf561080c565b8210610c36576040517f08c379a0000000000000000000000000000000000000000000000000000000008152600401610c2d90613389565b60405180910390fd5b60088281548110610c4a57610c49613271565b5b90600052602060002001549050919050565b600080610c688361172e565b9050600073ffffffffffffffffffffffffffffffffffffffff168173ffffffffffffffffffffffffffffffffffffffff1603610cd9576040517f08c379a0000000000000000000000000000000000000000000000000000000008152600401610cd0906133f5565b60405180910390fd5b80915050919050565b60008073ffffffffffffffffffffffffffffffffffffffff168273ffffffffffffffffffffffffffffffffffffffff1603610d52576040517f08c379a0000000000000000000000000000000000000000000000000000000008152600401610d4990613487565b60405180910390fd5b600360008373ffffffffffffffffffffffffffffffffffffffff1673ffffffffffffffffffffffffffffffffffffffff168152602001908152602001600020549050919050565b610da161176b565b610dab60006117e9565b565b600060606000600b805490508410610dfa576040517f08c379a0000000000000000000000000000000000000000000000000000000008152600401610df190613251565b60405180910390fd5b6000600b8581548110610e1057610e0f613271565b5b906000526020600020906003020190508060000160009054906101000a900473ffffffffffffffffffffffffffffffffffffffff169350806001018054610e5690612ca2565b80601f0160208091040260200160405190810160405280929190818152602001828054610e8290612ca2565b8015610ecf5780601f10610ea457610100808354040283529160200191610ecf565b820191906000526020600020905b815481529060010190602001808311610eb257829003601f168201915b5050505050925080600201549150509193909250565b6000600a60009054906101000a900473ffffffffffffffffffffffffffffffffffffffff16905090565b606060018054610f1e90612ca2565b80601f0160208091040260200160405190810160405280929190818152602001828054610f4a90612ca2565b8015610f975780601f10610f6c57610100808354040283529160200191610f97565b820191906000526020600020905b815481529060010190602001808311610f7a57829003601f168201915b5050505050905090565b610fb3610fac6112c5565b83836118af565b5050565b610fc8610fc26112c5565b83611386565b611007576040517f08c379a0000000000000000000000000000000000000000000000000000000008152600401610ffe90612e69565b60405180910390fd5b61101384848484611a1b565b50505050565b60606110248261127a565b600061102e611a77565b9050600081511161104e5760405180602001604052806000815250611079565b8061105884611a8e565b6040516020016110699291906134e3565b6040516020818303038152906040525b915050919050565b6000600560008473ffffffffffffffffffffffffffffffffffffffff1673ffffffffffffffffffffffffffffffffffffffff16815260200190815260200160002060008373ffffffffffffffffffffffffffffffffffffffff1673ffffffffffffffffffffffffffffffffffffffff16815260200190815260200160002060009054906101000a900460ff16905092915050565b61111d61176b565b600073ffffffffffffffffffffffffffffffffffffffff168173ffffffffffffffffffffffffffffffffffffffff160361118c576040517f08c379a000000000000000000000000000000000000000000000000000000000815260040161118390613579565b60405180910390fd5b611195816117e9565b50565b60007f80ac58cd000000000000000000000000000000000000000000000000000000007bffffffffffffffffffffffffffffffffffffffffffffffffffffffff1916827bffffffffffffffffffffffffffffffffffffffffffffffffffffffff1916148061126357507f5b5e139f000000000000000000000000000000000000000000000000000000007bffffffffffffffffffffffffffffffffffffffffffffffffffffffff1916827bffffffffffffffffffffffffffffffffffffffffffffffffffffffff1916145b80611273575061127282611b5c565b5b9050919050565b61128381611bc6565b6112c2576040517f08c379a00000000000000000000000000000000000000000000000000000000081526004016112b9906133f5565b60405180910390fd5b50565b600033905090565b816004600083815260200190815260200160002060006101000a81548173ffffffffffffffffffffffffffffffffffffffff021916908373ffffffffffffffffffffffffffffffffffffffff160217905550808273ffffffffffffffffffffffffffffffffffffffff1661134083610c5c565b73ffffffffffffffffffffffffffffffffffffffff167f8c5be1e5ebec7d5bd14f71427d1e84f3dd0314c0f7b2291e5b200ac8c7c3b92560405160405180910390a45050565b60008061139283610c5c565b90508073ffffffffffffffffffffffffffffffffffffffff168473ffffffffffffffffffffffffffffffffffffffff1614806113d457506113d38185611081565b5b8061141257508373ffffffffffffffffffffffffffffffffffffffff166113fa846105cd565b73ffffffffffffffffffffffffffffffffffffffff16145b91505092915050565b8273ffffffffffffffffffffffffffffffffffffffff1661143b82610c5c565b73ffffffffffffffffffffffffffffffffffffffff1614611491576040517f08c379a00000000000000000000000000000000000000000000000000000000081526004016114889061360b565b60405180910390fd5b600073ffffffffffffffffffffffffffffffffffffffff168273ffffffffffffffffffffffffffffffffffffffff1603611500576040517f08c379a00000000000000000000000000000000000000000000000000000000081526004016114f79061369d565b60405180910390fd5b61150d8383836001611c07565b8273ffffffffffffffffffffffffffffffffffffffff1661152d82610c5c565b73ffffffffffffffffffffffffffffffffffffffff1614611583576040517f08c379a000000000000000000000000000000000000000000000000000000000815260040161157a9061360b565b60405180910390fd5b6004600082815260200190815260200160002060006101000a81549073ffffffffffffffffffffffffffffffffffffffff02191690556001600360008573ffffffffffffffffffffffffffffffffffffffff1673ffffffffffffffffffffffffffffffffffffffff168152602001908152602001600020600082825403925050819055506001600360008473ffffffffffffffffffffffffffffffffffffffff1673ffffffffffffffffffffffffffffffffffffffff16815260200190815260200160002060008282540192505081905550816002600083815260200190815260200160002060006101000a81548173ffffffffffffffffffffffffffffffffffffffff021916908373ffffffffffffffffffffffffffffffffffffffff160217905550808273ffffffffffffffffffffffffffffffffffffffff168473ffffffffffffffffffffffffffffffffffffffff167fddf252ad1be2c89b69c2b068fc378daa952ba7f163c4a11628f55a4df523b3ef60405160405180910390a461170f8383836001611d65565b505050565b600061171e61080c565b905061172a8282611d6b565b5050565b60006002600083815260200190815260200160002060009054906101000a900473ffffffffffffffffffffffffffffffffffffffff169050919050565b6117736112c5565b73ffffffffffffffffffffffffffffffffffffffff16611791610ee5565b73ffffffffffffffffffffffffffffffffffffffff16146117e7576040517f08c379a00000000000000000000000000000000000000000000000000000000081526004016117de90613709565b60405180910390fd5b565b6000600a60009054906101000a900473ffffffffffffffffffffffffffffffffffffffff16905081600a60006101000a81548173ffffffffffffffffffffffffffffffffffffffff021916908373ffffffffffffffffffffffffffffffffffffffff1602179055508173ffffffffffffffffffffffffffffffffffffffff168173ffffffffffffffffffffffffffffffffffffffff167f8be0079c531659141344cd1fd0a4f28419497f9722a3daafe3b4186f6b6457e060405160405180910390a35050565b8173ffffffffffffffffffffffffffffffffffffffff168373ffffffffffffffffffffffffffffffffffffffff160361191d576040517f08c379a000000000000000000000000000000000000000000000000000000000815260040161191490613775565b60405180910390fd5b80600560008573ffffffffffffffffffffffffffffffffffffffff1673ffffffffffffffffffffffffffffffffffffffff16815260200190815260200160002060008473ffffffffffffffffffffffffffffffffffffffff1673ffffffffffffffffffffffffffffffffffffffff16815260200190815260200160002060006101000a81548160ff0219169083151502179055508173ffffffffffffffffffffffffffffffffffffffff168373ffffffffffffffffffffffffffffffffffffffff167f17307eab39ab6107e8899845ad3d59bd9653f200f220920489ca2b5937696c3183604051611a0e9190612645565b60405180910390a3505050565b611a2684848461141b565b611a3284848484611f88565b611a71576040517f08c379a0000000000000000000000000000000000000000000000000000000008152600401611a6890613807565b60405180910390fd5b50505050565b606060405180602001604052806000815250905090565b606060006001611a9d8461210f565b01905060008167ffffffffffffffff811115611abc57611abb612902565b5b6040519080825280601f01601f191660200182016040528015611aee5781602001600182028036833780820191505090505b509050600082602001820190505b600115611b51578080600190039150507f3031323334353637383961626364656600000000000000000000000000000000600a86061a8153600a8581611b4557611b44613827565b5b04945060008503611afc575b819350505050919050565b60007f01ffc9a7000000000000000000000000000000000000000000000000000000007bffffffffffffffffffffffffffffffffffffffffffffffffffffffff1916827bffffffffffffffffffffffffffffffffffffffffffffffffffffffff1916149050919050565b60008073ffffffffffffffffffffffffffffffffffffffff16611be88361172e565b73ffffffffffffffffffffffffffffffffffffffff1614159050919050565b611c1384848484612262565b6001811115611c57576040517f08c379a0000000000000000000000000000000000000000000000000000000008152600401611c4e906138c8565b60405180910390fd5b6000829050600073ffffffffffffffffffffffffffffffffffffffff168573ffffffffffffffffffffffffffffffffffffffff1603611c9e57611c9981612268565b611cdd565b8373ffffffffffffffffffffffffffffffffffffffff168573ffffffffffffffffffffffffffffffffffffffff1614611cdc57611cdb85826122b1565b5b5b600073ffffffffffffffffffffffffffffffffffffffff168473ffffffffffffffffffffffffffffffffffffffff1603611d1f57611d1a8161241e565b611d5e565b8473ffffffffffffffffffffffffffffffffffffffff168473ffffffffffffffffffffffffffffffffffffffff1614611d5d57611d5c84826124ef565b5b5b5050505050565b50505050565b600073ffffffffffffffffffffffffffffffffffffffff168273ffffffffffffffffffffffffffffffffffffffff1603611dda576040517f08c379a0000000000000000000000000000000000000000000000000000000008152600401611dd190613934565b60405180910390fd5b611de381611bc6565b15611e23576040517f08c379a0000000000000000000000000000000000000000000000000000000008152600401611e1a906139a0565b60405180910390fd5b611e31600083836001611c07565b611e3a81611bc6565b15611e7a576040517f08c379a0000000000000000000000000000000000000000000000000000000008152600401611e71906139a0565b60405180910390fd5b6001600360008473ffffffffffffffffffffffffffffffffffffffff1673ffffffffffffffffffffffffffffffffffffffff16815260200190815260200160002060008282540192505081905550816002600083815260200190815260200160002060006101000a81548173ffffffffffffffffffffffffffffffffffffffff021916908373ffffffffffffffffffffffffffffffffffffffff160217905550808273ffffffffffffffffffffffffffffffffffffffff16600073ffffffffffffffffffffffffffffffffffffffff167fddf252ad1be2c89b69c2b068fc378daa952ba7f163c4a11628f55a4df523b3ef60405160405180910390a4611f84600083836001611d65565b5050565b6000611fa98473ffffffffffffffffffffffffffffffffffffffff1661256e565b15612102578373ffffffffffffffffffffffffffffffffffffffff1663150b7a02611fd26112c5565b8786866040518563ffffffff1660e01b8152600401611ff49493929190613a15565b6020604051808303816000875af192505050801561203057506040513d601f19601f8201168201806040525081019061202d9190613a76565b60015b6120b2573d8060008114612060576040519150601f19603f3d011682016040523d82523d6000602084013e612065565b606091505b5060008151036120aa576040517f08c379a00000000000000000000000000000000000000000000000000000000081526004016120a190613807565b60405180910390fd5b805181602001fd5b63150b7a0260e01b7bffffffffffffffffffffffffffffffffffffffffffffffffffffffff1916817bffffffffffffffffffffffffffffffffffffffffffffffffffffffff191614915050612107565b600190505b949350505050565b600080600090507a184f03e93ff9f4daa797ed6e38ed64bf6a1f010000000000000000831061216d577a184f03e93ff9f4daa797ed6e38ed64bf6a1f010000000000000000838161216357612162613827565b5b0492506040810190505b6d04ee2d6d415b85acef810000000083106121aa576d04ee2d6d415b85acef810000000083816121a05761219f613827565b5b0492506020810190505b662386f26fc1000083106121d957662386f26fc1000083816121cf576121ce613827565b5b0492506010810190505b6305f5e1008310612202576305f5e10083816121f8576121f7613827565b5b0492506008810190505b612710831061222757612710838161221d5761221c613827565b5b0492506004810190505b6064831061224a57606483816122405761223f613827565b5b0492506002810190505b600a8310612259576001810190505b80915050919050565b50505050565b6008805490506009600083815260200190815260200160002081905550600881908060018154018082558091505060019003906000526020600020016000909190919091505550565b600060016122be84610ce2565b6122c89190613aa3565b90506000600760008481526020019081526020016000205490508181146123ad576000600660008673ffffffffffffffffffffffffffffffffffffffff1673ffffffffffffffffffffffffffffffffffffffff168152602001908152602001600020600084815260200190815260200160002054905080600660008773ffffffffffffffffffffffffffffffffffffffff1673ffffffffffffffffffffffffffffffffffffffff168152602001908152602001600020600084815260200190815260200160002081905550816007600083815260200190815260200160002081905550505b6007600084815260200190815260200160002060009055600660008573ffffffffffffffffffffffffffffffffffffffff1673ffffffffffffffffffffffffffffffffffffffff16815260200190815260200160002060008381526020019081526020016000206000905550505050565b600060016008805490506124329190613aa3565b905060006009600084815260200190815260200160002054905060006008838154811061246257612461613271565b5b90600052602060002001549050806008838154811061248457612483613271565b5b9060005260206000200181905550816009600083815260200190815260200160002081905550600960008581526020019081526020016000206000905560088054806124d3576124d2613ad7565b5b6001900381819060005260206000200160009055905550505050565b60006124fa83610ce2565b905081600660008573ffffffffffffffffffffffffffffffffffffffff1673ffffffffffffffffffffffffffffffffffffffff168152602001908152602001600020600083815260200190815260200160002081905550806007600084815260200190815260200160002081905550505050565b6000808273ffffffffffffffffffffffffffffffffffffffff163b119050919050565b6000604051905090565b600080fd5b600080fd5b60007fffffffff0000000000000000000000000000000000000000000000000000000082169050919050565b6125da816125a5565b81146125e557600080fd5b50565b6000813590506125f7816125d1565b92915050565b6000602082840312156126135761261261259b565b5b6000612621848285016125e8565b91505092915050565b60008115159050919050565b61263f8161262a565b82525050565b600060208201905061265a6000830184612636565b92915050565b600081519050919050565b600082825260208201905092915050565b60005b8381101561269a57808201518184015260208101905061267f565b60008484015250505050565b6000601f19601f8301169050919050565b60006126c282612660565b6126cc818561266b565b93506126dc81856020860161267c565b6126e5816126a6565b840191505092915050565b6000602082019050818103600083015261270a81846126b7565b905092915050565b6000819050919050565b61272581612712565b811461273057600080fd5b50565b6000813590506127428161271c565b92915050565b60006020828403121561275e5761275d61259b565b5b600061276c84828501612733565b91505092915050565b600073ffffffffffffffffffffffffffffffffffffffff82169050919050565b60006127a082612775565b9050919050565b6127b081612795565b82525050565b60006020820190506127cb60008301846127a7565b92915050565b6127da81612795565b81146127e557600080fd5b50565b6000813590506127f7816127d1565b92915050565b600080604083850312156128145761281361259b565b5b6000612822858286016127e8565b925050602061283385828601612733565b9150509250929050565b61284681612712565b82525050565b600060608201905061286160008301866127a7565b818103602083015261287381856126b7565b9050612882604083018461283d565b949350505050565b600060208201905061289f600083018461283d565b92915050565b6000806000606084860312156128be576128bd61259b565b5b60006128cc868287016127e8565b93505060206128dd868287016127e8565b92505060406128ee86828701612733565b9150509250925092565b600080fd5b600080fd5b7f4e487b7100000000000000000000000000000000000000000000000000000000600052604160045260246000fd5b61293a826126a6565b810181811067ffffffffffffffff8211171561295957612958612902565b5b80604052505050565b600061296c612591565b90506129788282612931565b919050565b600067ffffffffffffffff82111561299857612997612902565b5b6129a1826126a6565b9050602081019050919050565b82818337600083830152505050565b60006129d06129cb8461297d565b612962565b9050828152602081018484840111156129ec576129eb6128fd565b5b6129f78482856129ae565b509392505050565b600082601f830112612a1457612a136128f8565b5b8135612a248482602086016129bd565b91505092915050565b600060208284031215612a4357612a4261259b565b5b600082013567ffffffffffffffff811115612a6157612a606125a0565b5b612a6d848285016129ff565b91505092915050565b600060208284031215612a8c57612a8b61259b565b5b6000612a9a848285016127e8565b91505092915050565b612aac8161262a565b8114612ab757600080fd5b50565b600081359050612ac981612aa3565b92915050565b60008060408385031215612ae657612ae561259b565b5b6000612af4858286016127e8565b9250506020612b0585828601612aba565b9150509250929050565b600067ffffffffffffffff821115612b2a57612b29612902565b5b612b33826126a6565b9050602081019050919050565b6000612b53612b4e84612b0f565b612962565b905082815260208101848484011115612b6f57612b6e6128fd565b5b612b7a8482856129ae565b509392505050565b600082601f830112612b9757612b966128f8565b5b8135612ba7848260208601612b40565b91505092915050565b60008060008060808587031215612bca57612bc961259b565b5b6000612bd8878288016127e8565b9450506020612be9878288016127e8565b9350506040612bfa87828801612733565b925050606085013567ffffffffffffffff811115612c1b57612c1a6125a0565b5b612c2787828801612b82565b91505092959194509250565b60008060408385031215612c4a57612c4961259b565b5b6000612c58858286016127e8565b9250506020612c69858286016127e8565b9150509250929050565b7f4e487b7100000000000000000000000000000000000000000000000000000000600052602260045260246000fd5b60006002820490506001821680612cba57607f821691505b602082108103612ccd57612ccc612c73565b5b50919050565b7f4552433732313a20617070726f76616c20746f2063757272656e74206f776e6560008201527f7200000000000000000000000000000000000000000000000000000000000000602082015250565b6000612d2f60218361266b565b9150612d3a82612cd3565b604082019050919050565b60006020820190508181036000830152612d5e81612d22565b9050919050565b7f4552433732313a20617070726f76652063616c6c6572206973206e6f7420746f60008201527f6b656e206f776e6572206f7220617070726f76656420666f7220616c6c000000602082015250565b6000612dc1603d8361266b565b9150612dcc82612d65565b604082019050919050565b60006020820190508181036000830152612df081612db4565b9050919050565b7f4552433732313a2063616c6c6572206973206e6f7420746f6b656e206f776e6560008201527f72206f7220617070726f76656400000000000000000000000000000000000000602082015250565b6000612e53602d8361266b565b9150612e5e82612df7565b604082019050919050565b60006020820190508181036000830152612e8281612e46565b9050919050565b7f455243373231456e756d657261626c653a206f776e657220696e646578206f7560008201527f74206f6620626f756e6473000000000000000000000000000000000000000000602082015250565b6000612ee5602b8361266b565b9150612ef082612e89565b604082019050919050565b60006020820190508181036000830152612f1481612ed8565b9050919050565b7f4d65737361676520636f6e74656e742063616e277420626520656d7074790000600082015250565b6000612f51601e8361266b565b9150612f5c82612f1b565b602082019050919050565b60006020820190508181036000830152612f8081612f44565b9050919050565b60008190508160005260206000209050919050565b60006020601f8301049050919050565b600082821b905092915050565b600060088302612fe97fffffffffffffffffffffffffffffffffffffffffffffffffffffffffffffffff82612fac565b612ff38683612fac565b95508019841693508086168417925050509392505050565b6000819050919050565b600061303061302b61302684612712565b61300b565b612712565b9050919050565b6000819050919050565b61304a83613015565b61305e61305682613037565b848454612fb9565b825550505050565b600090565b613073613066565b61307e818484613041565b505050565b5b818110156130a25761309760008261306b565b600181019050613084565b5050565b601f8211156130e7576130b881612f87565b6130c184612f9c565b810160208510156130d0578190505b6130e46130dc85612f9c565b830182613083565b50505b505050565b600082821c905092915050565b600061310a600019846008026130ec565b1980831691505092915050565b600061312383836130f9565b9150826002028217905092915050565b61313c82612660565b67ffffffffffffffff81111561315557613154612902565b5b61315f8254612ca2565b61316a8282856130a6565b600060209050601f83116001811461319d576000841561318b578287015190505b6131958582613117565b8655506131fd565b601f1984166131ab86612f87565b60005b828110156131d3578489015182556001820191506020850194506020810190506131ae565b868310156131f057848901516131ec601f8916826130f9565b8355505b6001600288020188555050505b505050505050565b7f496e76616c6964206d6573736167652049440000000000000000000000000000600082015250565b600061323b60128361266b565b915061324682613205565b602082019050919050565b6000602082019050818103600083015261326a8161322e565b9050919050565b7f4e487b7100000000000000000000000000000000000000000000000000000000600052603260045260246000fd5b7f4e487b7100000000000000000000000000000000000000000000000000000000600052601160045260246000fd5b60006132da82612712565b91507fffffffffffffffffffffffffffffffffffffffffffffffffffffffffffffffff820361330c5761330b6132a0565b5b600182019050919050565b7f455243373231456e756d657261626c653a20676c6f62616c20696e646578206f60008201527f7574206f6620626f756e64730000000000000000000000000000000000000000602082015250565b6000613373602c8361266b565b915061337e82613317565b604082019050919050565b600060208201905081810360008301526133a281613366565b9050919050565b7f4552433732313a20696e76616c696420746f6b656e2049440000000000000000600082015250565b60006133df60188361266b565b91506133ea826133a9565b602082019050919050565b6000602082019050818103600083015261340e816133d2565b9050919050565b7f4552433732313a2061646472657373207a65726f206973206e6f74206120766160008201527f6c6964206f776e65720000000000000000000000000000000000000000000000602082015250565b600061347160298361266b565b915061347c82613415565b604082019050919050565b600060208201905081810360008301526134a081613464565b9050919050565b600081905092915050565b60006134bd82612660565b6134c781856134a7565b93506134d781856020860161267c565b80840191505092915050565b60006134ef82856134b2565b91506134fb82846134b2565b91508190509392505050565b7f4f776e61626c653a206e6577206f776e657220697320746865207a65726f206160008201527f6464726573730000000000000000000000000000000000000000000000000000602082015250565b600061356360268361266b565b915061356e82613507565b604082019050919050565b6000602082019050818103600083015261359281613556565b9050919050565b7f4552433732313a207472616e736665722066726f6d20696e636f72726563742060008201527f6f776e6572000000000000000000000000000000000000000000000000000000602082015250565b60006135f560258361266b565b915061360082613599565b604082019050919050565b60006020820190508181036000830152613624816135e8565b9050919050565b7f4552433732313a207472616e7366657220746f20746865207a65726f2061646460008201527f7265737300000000000000000000000000000000000000000000000000000000602082015250565b600061368760248361266b565b91506136928261362b565b604082019050919050565b600060208201905081810360008301526136b68161367a565b9050919050565b7f4f776e61626c653a2063616c6c6572206973206e6f7420746865206f776e6572600082015250565b60006136f360208361266b565b91506136fe826136bd565b602082019050919050565b60006020820190508181036000830152613722816136e6565b9050919050565b7f4552433732313a20617070726f766520746f2063616c6c657200000000000000600082015250565b600061375f60198361266b565b915061376a82613729565b602082019050919050565b6000602082019050818103600083015261378e81613752565b9050919050565b7f4552433732313a207472616e7366657220746f206e6f6e20455243373231526560008201527f63656976657220696d706c656d656e7465720000000000000000000000000000602082015250565b60006137f160328361266b565b91506137fc82613795565b604082019050919050565b60006020820190508181036000830152613820816137e4565b9050919050565b7f4e487b7100000000000000000000000000000000000000000000000000000000600052601260045260246000fd5b7f455243373231456e756d657261626c653a20636f6e736563757469766520747260008201527f616e7366657273206e6f7420737570706f727465640000000000000000000000602082015250565b60006138b260358361266b565b91506138bd82613856565b604082019050919050565b600060208201905081810360008301526138e1816138a5565b9050919050565b7f4552433732313a206d696e7420746f20746865207a65726f2061646472657373600082015250565b600061391e60208361266b565b9150613929826138e8565b602082019050919050565b6000602082019050818103600083015261394d81613911565b9050919050565b7f4552433732313a20746f6b656e20616c7265616479206d696e74656400000000600082015250565b600061398a601c8361266b565b915061399582613954565b602082019050919050565b600060208201905081810360008301526139b98161397d565b9050919050565b600081519050919050565b600082825260208201905092915050565b60006139e7826139c0565b6139f181856139cb565b9350613a0181856020860161267c565b613a0a816126a6565b840191505092915050565b6000608082019050613a2a60008301876127a7565b613a3760208301866127a7565b613a44604083018561283d565b8181036060830152613a5681846139dc565b905095945050505050565b600081519050613a70816125d1565b92915050565b600060208284031215613a8c57613a8b61259b565b5b6000613a9a84828501613a61565b91505092915050565b6000613aae82612712565b9150613ab983612712565b9250828203905081811115613ad157613ad06132a0565b5b92915050565b7f4e487b7100000000000000000000000000000000000000000000000000000000600052603160045260246000fdfea26469706673582212202c6e107c4a76c11483096e10cee48d79ff4e2c05da503fe4f594528bfb5c52f264736f6c63430008120033",
  "linkReferences": {},
  "deployedLinkReferences": {}
}